{
  "_format": "hh-sol-artifact-1",
  "contractName": "Transations",
  "sourceName": "contracts/Transations.sol",
  "abi": [
    {
      "anonymous": false,
      "inputs": [
        {
          "indexed": false,
          "internalType": "address",
          "name": "from",
          "type": "address"
        },
        {
          "indexed": false,
          "internalType": "address",
          "name": "receiver",
          "type": "address"
        },
        {
          "indexed": false,
          "internalType": "uint256",
          "name": "amount",
          "type": "uint256"
        },
        {
          "indexed": false,
          "internalType": "string",
          "name": "message",
          "type": "string"
        },
        {
          "indexed": false,
          "internalType": "uint256",
          "name": "timestamp",
          "type": "uint256"
        }
      ],
      "name": "Transfer",
      "type": "event"
    },
    {
      "inputs": [
        {
          "internalType": "address payable",
          "name": "receiver",
          "type": "address"
        },
        {
          "internalType": "uint256",
          "name": "amount",
          "type": "uint256"
        },
        {
          "internalType": "string",
          "name": "message",
          "type": "string"
        }
      ],
      "name": "Addtoblockchain",
      "outputs": [],
      "stateMutability": "nonpayable",
      "type": "function"
    },
    {
      "inputs": [],
      "name": "Gettransations",
      "outputs": [
        {
          "components": [
            {
              "internalType": "address",
              "name": "from",
              "type": "address"
            },
            {
              "internalType": "address",
              "name": "receiver",
              "type": "address"
            },
            {
              "internalType": "uint256",
              "name": "amount",
              "type": "uint256"
            },
            {
              "internalType": "string",
              "name": "message",
              "type": "string"
            },
            {
              "internalType": "uint256",
              "name": "timestamp",
              "type": "uint256"
            }
          ],
          "internalType": "struct Transations.TransferStruct[]",
          "name": "",
          "type": "tuple[]"
        }
      ],
      "stateMutability": "view",
      "type": "function"
    },
    {
      "inputs": [],
      "name": "Gettransationscount",
      "outputs": [
        {
          "internalType": "uint256",
          "name": "",
          "type": "uint256"
        }
      ],
      "stateMutability": "view",
      "type": "function"
    }
  ],
  "bytecode": "0x608060405234801561001057600080fd5b506109aa806100206000396000f3fe608060405234801561001057600080fd5b50600436106100415760003560e01c8063487bbe8814610046578063941ea71314610064578063c679d22214610082575b600080fd5b61004e61009e565b60405161005b91906102fc565b60405180910390f35b61006c6100a3565b6040516100799190610538565b60405180910390f35b61009c6004803603810190610097919061070d565b6100a8565b005b600090565b606090565b60016000546100b791906107ab565b60008190555060016040518060a001604052803373ffffffffffffffffffffffffffffffffffffffff1681526020018573ffffffffffffffffffffffffffffffffffffffff16815260200184815260200183815260200142815250908060018154018082558091505060019003906000526020600020906005020160009091909190915060008201518160000160006101000a81548173ffffffffffffffffffffffffffffffffffffffff021916908373ffffffffffffffffffffffffffffffffffffffff16021790555060208201518160010160006101000a81548173ffffffffffffffffffffffffffffffffffffffff021916908373ffffffffffffffffffffffffffffffffffffffff1602179055506040820151816002015560608201518160030190805190602001906101ef929190610240565b506080820151816004015550507fc4b32d7ff75a51e487f3cbb5d3202f2efecca1f4c2b987e0039c1d3220b48a8333848484426040516102339594939291906108b9565b60405180910390a1505050565b82805461024c90610942565b90600052602060002090601f01602090048101928261026e57600085556102b5565b82601f1061028757805160ff19168380011785556102b5565b828001600101855582156102b5579182015b828111156102b4578251825591602001919060010190610299565b5b5090506102c291906102c6565b5090565b5b808211156102df5760008160009055506001016102c7565b5090565b6000819050919050565b6102f6816102e3565b82525050565b600060208201905061031160008301846102ed565b92915050565b600081519050919050565b600082825260208201905092915050565b6000819050602082019050919050565b600073ffffffffffffffffffffffffffffffffffffffff82169050919050565b600061036e82610343565b9050919050565b61037e81610363565b82525050565b61038d816102e3565b82525050565b600081519050919050565b600082825260208201905092915050565b60005b838110156103cd5780820151818401526020810190506103b2565b838111156103dc576000848401525b50505050565b6000601f19601f8301169050919050565b60006103fe82610393565b610408818561039e565b93506104188185602086016103af565b610421816103e2565b840191505092915050565b600060a0830160008301516104446000860182610375565b5060208301516104576020860182610375565b50604083015161046a6040860182610384565b506060830151848203606086015261048282826103f3565b91505060808301516104976080860182610384565b508091505092915050565b60006104ae838361042c565b905092915050565b6000602082019050919050565b60006104ce82610317565b6104d88185610322565b9350836020820285016104ea85610333565b8060005b85811015610526578484038952815161050785826104a2565b9450610512836104b6565b925060208a019950506001810190506104ee565b50829750879550505050505092915050565b6000602082019050818103600083015261055281846104c3565b905092915050565b6000604051905090565b600080fd5b600080fd5b600061057982610343565b9050919050565b6105898161056e565b811461059457600080fd5b50565b6000813590506105a681610580565b92915050565b6105b5816102e3565b81146105c057600080fd5b50565b6000813590506105d2816105ac565b92915050565b600080fd5b600080fd5b7f4e487b7100000000000000000000000000000000000000000000000000000000600052604160045260246000fd5b61061a826103e2565b810181811067ffffffffffffffff82111715610639576106386105e2565b5b80604052505050565b600061064c61055a565b90506106588282610611565b919050565b600067ffffffffffffffff821115610678576106776105e2565b5b610681826103e2565b9050602081019050919050565b82818337600083830152505050565b60006106b06106ab8461065d565b610642565b9050828152602081018484840111156106cc576106cb6105dd565b5b6106d784828561068e565b509392505050565b600082601f8301126106f4576106f36105d8565b5b813561070484826020860161069d565b91505092915050565b60008060006060848603121561072657610725610564565b5b600061073486828701610597565b9350506020610745868287016105c3565b925050604084013567ffffffffffffffff81111561076657610765610569565b5b610772868287016106df565b9150509250925092565b7f4e487b7100000000000000000000000000000000000000000000000000000000600052601160045260246000fd5b60006107b6826102e3565b91506107c1836102e3565b9250827fffffffffffffffffffffffffffffffffffffffffffffffffffffffffffffffff038211156107f6576107f561077c565b5b828201905092915050565b61080a81610363565b82525050565b6000819050919050565b600061083561083061082b84610343565b610810565b610343565b9050919050565b60006108478261081a565b9050919050565b60006108598261083c565b9050919050565b6108698161084e565b82525050565b600082825260208201905092915050565b600061088b82610393565b610895818561086f565b93506108a58185602086016103af565b6108ae816103e2565b840191505092915050565b600060a0820190506108ce6000830188610801565b6108db6020830187610860565b6108e860408301866102ed565b81810360608301526108fa8185610880565b905061090960808301846102ed565b9695505050505050565b7f4e487b7100000000000000000000000000000000000000000000000000000000600052602260045260246000fd5b6000600282049050600182168061095a57607f821691505b6020821081141561096e5761096d610913565b5b5091905056fea2646970667358221220b3bf75e8f487c98403f914f17ce2abdb44be269b8982b313df525556fafb0ec064736f6c63430008090033",
  "linkReferences": {},
  "deployedLinkReferences": {}
}