{
  "_format": "hh-sol-artifact-1",
  "contractName": "Transations",
  "sourceName": "contracts/Transations.sol",
  "abi": [
    {
      "anonymous": false,
      "inputs": [
        {
          "indexed": false,
          "internalType": "address",
          "name": "from",
          "type": "address"
        },
        {
          "indexed": false,
          "internalType": "address",
          "name": "receiver",
          "type": "address"
        },
        {
          "indexed": false,
          "internalType": "uint256",
          "name": "amount",
          "type": "uint256"
        },
        {
          "indexed": false,
          "internalType": "string",
          "name": "message",
          "type": "string"
        },
        {
          "indexed": false,
          "internalType": "uint256",
          "name": "timestamp",
          "type": "uint256"
        }
      ],
      "name": "Transfer",
      "type": "event"
    },
    {
      "inputs": [
        {
          "internalType": "address payable",
          "name": "receiver",
          "type": "address"
        },
        {
          "internalType": "uint256",
          "name": "amount",
          "type": "uint256"
        },
        {
          "internalType": "string",
          "name": "message",
          "type": "string"
        }
      ],
      "name": "Addtoblockchain",
      "outputs": [],
      "stateMutability": "nonpayable",
      "type": "function"
    },
    {
      "inputs": [],
      "name": "Gettransations",
      "outputs": [
        {
          "components": [
            {
              "internalType": "address",
              "name": "from",
              "type": "address"
            },
            {
              "internalType": "address",
              "name": "receiver",
              "type": "address"
            },
            {
              "internalType": "uint256",
              "name": "amount",
              "type": "uint256"
            },
            {
              "internalType": "string",
              "name": "message",
              "type": "string"
            },
            {
              "internalType": "uint256",
              "name": "timestamp",
              "type": "uint256"
            }
          ],
          "internalType": "struct Transations.TransferStruct[]",
          "name": "",
          "type": "tuple[]"
        }
      ],
      "stateMutability": "view",
      "type": "function"
    },
    {
      "inputs": [],
      "name": "Gettransationscount",
      "outputs": [
        {
          "internalType": "uint256",
          "name": "",
          "type": "uint256"
        }
      ],
      "stateMutability": "view",
      "type": "function"
    }
  ],
  "bytecode": "0x608060405234801561001057600080fd5b50610b56806100206000396000f3fe608060405234801561001057600080fd5b50600436106100415760003560e01c8063487bbe8814610046578063941ea71314610064578063c679d22214610082575b600080fd5b61004e61009e565b60405161005b91906104a8565b60405180910390f35b61006c6100a3565b60405161007991906106e4565b60405180910390f35b61009c600480360381019061009791906108b9565b610254565b005b600090565b60606001805480602002602001604051908101604052809291908181526020016000905b8282101561024b57838290600052602060002090600502016040518060a00160405290816000820160009054906101000a900473ffffffffffffffffffffffffffffffffffffffff1673ffffffffffffffffffffffffffffffffffffffff1673ffffffffffffffffffffffffffffffffffffffff1681526020016001820160009054906101000a900473ffffffffffffffffffffffffffffffffffffffff1673ffffffffffffffffffffffffffffffffffffffff1673ffffffffffffffffffffffffffffffffffffffff168152602001600282015481526020016003820180546101b090610957565b80601f01602080910402602001604051908101604052809291908181526020018280546101dc90610957565b80156102295780601f106101fe57610100808354040283529160200191610229565b820191906000526020600020905b81548152906001019060200180831161020c57829003601f168201915b50505050508152602001600482015481525050815260200190600101906100c7565b50505050905090565b600160005461026391906109b8565b60008190555060016040518060a001604052803373ffffffffffffffffffffffffffffffffffffffff1681526020018573ffffffffffffffffffffffffffffffffffffffff16815260200184815260200183815260200142815250908060018154018082558091505060019003906000526020600020906005020160009091909190915060008201518160000160006101000a81548173ffffffffffffffffffffffffffffffffffffffff021916908373ffffffffffffffffffffffffffffffffffffffff16021790555060208201518160010160006101000a81548173ffffffffffffffffffffffffffffffffffffffff021916908373ffffffffffffffffffffffffffffffffffffffff16021790555060408201518160020155606082015181600301908051906020019061039b9291906103ec565b506080820151816004015550507fc4b32d7ff75a51e487f3cbb5d3202f2efecca1f4c2b987e0039c1d3220b48a8333848484426040516103df959493929190610ac6565b60405180910390a1505050565b8280546103f890610957565b90600052602060002090601f01602090048101928261041a5760008555610461565b82601f1061043357805160ff1916838001178555610461565b82800160010185558215610461579182015b82811115610460578251825591602001919060010190610445565b5b50905061046e9190610472565b5090565b5b8082111561048b576000816000905550600101610473565b5090565b6000819050919050565b6104a28161048f565b82525050565b60006020820190506104bd6000830184610499565b92915050565b600081519050919050565b600082825260208201905092915050565b6000819050602082019050919050565b600073ffffffffffffffffffffffffffffffffffffffff82169050919050565b600061051a826104ef565b9050919050565b61052a8161050f565b82525050565b6105398161048f565b82525050565b600081519050919050565b600082825260208201905092915050565b60005b8381101561057957808201518184015260208101905061055e565b83811115610588576000848401525b50505050565b6000601f19601f8301169050919050565b60006105aa8261053f565b6105b4818561054a565b93506105c481856020860161055b565b6105cd8161058e565b840191505092915050565b600060a0830160008301516105f06000860182610521565b5060208301516106036020860182610521565b5060408301516106166040860182610530565b506060830151848203606086015261062e828261059f565b91505060808301516106436080860182610530565b508091505092915050565b600061065a83836105d8565b905092915050565b6000602082019050919050565b600061067a826104c3565b61068481856104ce565b935083602082028501610696856104df565b8060005b858110156106d257848403895281516106b3858261064e565b94506106be83610662565b925060208a0199505060018101905061069a565b50829750879550505050505092915050565b600060208201905081810360008301526106fe818461066f565b905092915050565b6000604051905090565b600080fd5b600080fd5b6000610725826104ef565b9050919050565b6107358161071a565b811461074057600080fd5b50565b6000813590506107528161072c565b92915050565b6107618161048f565b811461076c57600080fd5b50565b60008135905061077e81610758565b92915050565b600080fd5b600080fd5b7f4e487b7100000000000000000000000000000000000000000000000000000000600052604160045260246000fd5b6107c68261058e565b810181811067ffffffffffffffff821117156107e5576107e461078e565b5b80604052505050565b60006107f8610706565b905061080482826107bd565b919050565b600067ffffffffffffffff8211156108245761082361078e565b5b61082d8261058e565b9050602081019050919050565b82818337600083830152505050565b600061085c61085784610809565b6107ee565b90508281526020810184848401111561087857610877610789565b5b61088384828561083a565b509392505050565b600082601f8301126108a05761089f610784565b5b81356108b0848260208601610849565b91505092915050565b6000806000606084860312156108d2576108d1610710565b5b60006108e086828701610743565b93505060206108f18682870161076f565b925050604084013567ffffffffffffffff81111561091257610911610715565b5b61091e8682870161088b565b9150509250925092565b7f4e487b7100000000000000000000000000000000000000000000000000000000600052602260045260246000fd5b6000600282049050600182168061096f57607f821691505b6020821081141561098357610982610928565b5b50919050565b7f4e487b7100000000000000000000000000000000000000000000000000000000600052601160045260246000fd5b60006109c38261048f565b91506109ce8361048f565b9250827fffffffffffffffffffffffffffffffffffffffffffffffffffffffffffffffff03821115610a0357610a02610989565b5b828201905092915050565b610a178161050f565b82525050565b6000819050919050565b6000610a42610a3d610a38846104ef565b610a1d565b6104ef565b9050919050565b6000610a5482610a27565b9050919050565b6000610a6682610a49565b9050919050565b610a7681610a5b565b82525050565b600082825260208201905092915050565b6000610a988261053f565b610aa28185610a7c565b9350610ab281856020860161055b565b610abb8161058e565b840191505092915050565b600060a082019050610adb6000830188610a0e565b610ae86020830187610a6d565b610af56040830186610499565b8181036060830152610b078185610a8d565b9050610b166080830184610499565b969550505050505056fea26469706673582212205d87433013d9d0f508e774d6f91c98284233a37b920f17f8b6594d1fb5ef272964736f6c63430008090033",
  "linkReferences": {},
  "deployedLinkReferences": {}
}